:100000000C9462000C9404040C942B040C948A004D
:100010000C948A000C948A000C948A000C948A0038
:100020000C948A000C948A000C948A000C948A0028
:100030000C948A000C948A000C948A000C948A0018
:100040000C9452040C948A000C948A000C948A003C
:100050000C948A000C948A000C948A000C948A00F8
:100060000C948A000C948A00000000080002010031
:100070000003040700000000000000000102040863
:100080001020408001020408102001020408102002
:10009000040404040404040402020202020203032E
:1000A00003030303000000002300260029000000D2
:1000B0000000250028002B0000000000240027007D
:1000C0002A00560211241FBECFEFD8E0DEBFCDBFFD
:1000D00011E0A0E0B1E0E6E5F3E102C005900D9289
:1000E000AA32B107D9F721E0AAE2B1E001C01D921E
:1000F000A036B207E1F710E0C4ECD0E004C02297CC
:10010000FE010E942D07C23CD107C9F70E94B0052D
:100110000C94A9090C9400008091390190913A0146
:10012000019690933A0180933901089520E042E0CE
:1001300060E18BE391E00E941F0362E08FE00E9488
:10014000170562E080E10E94170562E081E10E94EC
:10015000170560E082E00E94170561E08DE00E94D3
:10016000170560E08DE00E94500510922E0110925C
:100170002D0110922C0110922B0110922A0143E0C4
:1001800050E06CE870E080E00C94E4038091390169
:1001900090913A01893A91406CF010923A01109294
:1001A000390180913701909138010196909338017F
:1001B00080933701209137013091380180910601F9
:1001C000909107012817390714F010922D01089516
:1001D00080912C01882381F0809106019091070184
:1001E000873E23E092070CF40196909307018093D9
:1001F000060181E080932E0180912B01882379F004
:100200008091060190910701823091050CF00197D1
:10021000909307018093060181E080932E018091E5
:100220002A01882369F010923A0110923901109244
:1002300038011092370181E080932D0180932E01C7
:100240000895CF92DF92EF92FF920F931F93CF9377
:10025000DF9300D000D000D0CDB7DEB78C014AE0EC
:100260000E94C006E12CF12C84E0C82ED12CF801AC
:10027000848195819601281B390BE216F306B8F4A8
:100280006CE071E0CE0101960E947B06B801CE01C0
:1002900001960E941807BC01C8010E949106CE0178
:1002A00001960E940D062FEFE21AF20AE0CFC80174
:1002B00026960FB6F894DEBF0FBECDBFDF91CF916B
:1002C0001F910F91FF90EF90DF90CF900895CF9204
:1002D000DF92EF92FF92CF93DF9300D000D000D057
:1002E000CDB7DEB78FE00E94860521E0892B09F0AB
:1002F00020E020932C0180E10E94860521E0892BDB
:1003000009F020E020932B0181E10E94860521E085
:10031000892B09F020E020932A0160912E018DE0C5
:100320000E94500580912E01811116C080912D01EF
:10033000811112C0C0903301D0903401E09035019A
:10034000F09036010E949C04C616D706E806F9060E
:10035000F8F40E94E8001CC080912C01811118C0A3
:1003600080912B01811114C080912A01811110C04C
:100370000E949C0468537F4F8F4F9F4F60933301BF
:1003800070933401809335019093360110922E01C1
:1003900080912D0181110E94C600C0902F01D09044
:1003A0003001E0903101F09032010E949C04C616A9
:1003B000D706E806F90608F06CC08BE391E00E94CE
:1003C000FE0240E060E08BE391E00E9405036EE0F6
:1003D00071E08BE391E00E940B0640E069E08BE363
:1003E00091E00E9405036091060170910701CE0122
:1003F00001960E942101BE016F5F7F4F8BE391E068
:100400000E94FD05CE0101960E940D0641E060E0CC
:100410008BE391E00E94050367E171E08BE391E0DB
:100420000E940B0641E069E08BE391E00E94050326
:100430006091370170913801CE0101960E9421012F
:10044000BE016F5F7F4F8BE391E00E94FD05CE01FF
:1004500001960E940D0680912D01882361F040E0F5
:100460006FE08BE391E00E94050360E271E08BE3B3
:1004700091E00E940B060E949C046C597F4F8F4FA5
:100480009F4F60932F0170933001809331019093BF
:10049000320126960FB6F894DEBF0FBECDBFDF91B6
:1004A000CF91FF90EF90DF90CF900895CF92EF9291
:1004B0000F9397E0C92E26E0E22E05E024E049E004
:1004C00068E08BE391E00E94BD030F91EF90CF9025
:1004D0000895CF93DF93EC0160E08E810E94500578
:1004E00081E090E00E94A80461E08E810E945005A6
:1004F00081E090E00E94A80460E08E810E94500597
:1005000084E690E0DF91CF910C94A804EF92FF92E3
:100510000F931F93CF93DF938C01C0E0D0E0E62EC2
:10052000F12CB7010C2E02C0759567950A94E2F77D
:100530006170F801EC0FFD1F87810E945005219624
:10054000C430D10571F7C801DF91CF911F910F9190
:10055000FF90EF900C946902EF92FF920F931F931C
:10056000CF93DF938C01C0E0D0E0E62EF12CB701F1
:100570000C2E02C0759567950A94E2F76170F80138
:10058000EC0FFD1F87810E9450052196C830D105D0
:1005900071F7C801DF91CF911F910F91FF90EF90FC
:1005A0000C9469021F93CF93DF93EC01162F642FF5
:1005B0008C810E9450058D818F3F19F060E00E9470
:1005C00050058F85612F84FF06C0CE01DF91CF914A
:1005D0001F910C94AC0270E084E0759567958A9544
:1005E000E1F7CE010E948602612FCE01DF91CF910B
:1005F0001F910C94860240E00C94D20261E00E94AC
:10060000FB0280ED97E00C94A804443008F043E02E
:10061000FC012389421710F04FEF420FFC01E40F59
:10062000F11D2489260F2068622F0C94FB02FC0127
:100630006089262F2460208B6C600C94FB020F9342
:100640001F93CF93DF93EC01423018F08F858860C1
:100650008F874B8B1C8A80E48D8B6E8B70E0605C87
:100660007F4F6F8B222329F0413019F48F858460EE
:100670008F8761E08C810E9417058D818F3F19F073
:1006800061E00E94170561E08E810E94170500E07D
:1006900010E08F8584FF03C088E090E002C084E012
:1006A00090E00817190754F4FE01E00FF11F61E014
:1006B00087810E9417050F5F1F4FEBCF80E593ECFA
:1006C0000E94A80460E08C810E94500560E08E8149
:1006D0000E9450058D818F3F19F060E00E94500507
:1006E0006F8564FD1DC063E0CE010E94860284E92F
:1006F00091E10E94A80463E0CE010E94860284E991
:1007000091E10E94A80463E0CE010E94860286E97E
:1007100090E00E94A80462E0CE010E94860216C00A
:100720006062CE010E94FB0284E991E10E94A8046C
:100730006F856062CE010E94FB0286E990E00E9414
:10074000A8046F856062CE010E94FB026F85606223
:10075000CE010E94FB0284E0888BCE010E94170329
:10076000CE010E94FE0282E0898B66E0CE01DF911D
:10077000CF911F910F910C94FB02CF92EF920F93A8
:10078000FC011382128286E291E09183808364836C
:100790008FEF8583468327830087E186C286138691
:1007A000148615861686178620E041E060E1CF01A9
:1007B0000F91EF90CF900C941F0341E00E94D20262
:1007C00081E090E0089508958230E8F4E82FF0E0A9
:1007D000EE0FFF1FE85FFE4F71836083813041F0B1
:1007E000809169008C7F842B80936900E89A08953A
:1007F00080916900440F551F440F551F837F842B40
:1008000080936900E99A08951F920F920FB60F9294
:1008100011242F933F934F935F936F937F938F9305
:100820009F93AF93BF93EF93FF93E0910801F091F3
:1008300009010995FF91EF91BF91AF919F918F9120
:100840007F916F915F914F913F912F910F900FBECC
:100850000F901F9018951F920F920FB60F921124B0
:100860002F933F934F935F936F937F938F939F93B8
:10087000AF93BF93EF93FF93E0910A01F0910B01C7
:100880000995FF91EF91BF91AF919F918F917F91CA
:100890006F915F914F913F912F910F900FBE0F90ED
:1008A0001F9018951F920F920FB60F9211242F933D
:1008B0003F938F939F93AF93BF93809154019091F7
:1008C0005501A0915601B09157013091530123E099
:1008D000230F2D3720F40196A11DB11D05C026E878
:1008E000230F0296A11DB11D209353018093540143
:1008F00090935501A0935601B093570180915801F0
:1009000090915901A0915A01B0915B010196A11DEE
:10091000B11D8093580190935901A0935A01B0934F
:100920005B01BF91AF919F918F913F912F910F905C
:100930000FBE0F901F9018952FB7F8946091540137
:100940007091550180915601909157012FBF0895E4
:100950008230910538F0880F991F880F991F0597ED
:100960000197F1F70895789484B5826084BD84B5C9
:10097000816084BD85B5826085BD85B5816085BD9A
:10098000EEE6F0E0808181608083E1E8F0E01082B3
:10099000808182608083808181608083E0E8F0E0F4
:1009A000808181608083E1EBF0E0808184608083DE
:1009B000E0EBF0E0808181608083EAE7F0E0808115
:1009C0008460808380818260808380818160808375
:1009D0008081806880831092C1000895833081F007
:1009E00028F4813099F08230A1F008958730A9F081
:1009F0008830B9F08430D1F4809180008F7D03C0BD
:100A0000809180008F7780938000089584B58F77E0
:100A100002C084B58F7D84BD08958091B0008F772A
:100A200003C08091B0008F7D8093B0000895CF9374
:100A3000DF9390E0FC01E458FF4F2491FC01E05764
:100A4000FF4F8491882349F190E0880F991FFC01A2
:100A5000E854FF4FA591B49182559F4FFC01C59179
:100A6000D4919FB7611108C0F8948C91209582238E
:100A70008C93888182230AC0623051F4F8948C915F
:100A8000322F309583238C938881822B888304C0F6
:100A9000F8948C91822B8C939FBFDF91CF91089516
:100AA0000F931F93CF93DF931F92CDB7DEB7282FFD
:100AB00030E0F901E859FF4F8491F901E458FF4F04
:100AC0001491F901E057FF4F04910023C9F08823E6
:100AD00021F069830E94EE046981E02FF0E0EE0FBF
:100AE000FF1FE255FF4FA591B4919FB7F8948C91E9
:100AF000611103C01095812301C0812B8C939FBF8E
:100B00000F90DF91CF911F910F910895CF93DF93B5
:100B1000282F30E0F901E859FF4F8491F901E4589A
:100B2000FF4FD491F901E057FF4FC491CC2391F0CE
:100B300081110E94EE04EC2FF0E0EE0FFF1FEC5548
:100B4000FF4FA591B4912C912D2381E090E021F4E9
:100B500080E002C080E090E0DF91CF910895089599
:100B60000E94B3040E94AF050E949600C0E0D0E04E
:100B70000E9467012097E1F30E940000F9CFCF9215
:100B8000DF92EF92FF920F931F93CF93DF937C013D
:100B90006A01EB0100E010E00C151D0571F0699190
:100BA000D701ED91FC910190F081E02DC7010995ED
:100BB000892B19F00F5F1F4FEFCFC801DF91CF9145
:100BC0001F910F91FF90EF90DF90CF9008956115E6
:100BD000710581F0DB010D900020E9F7AD01415076
:100BE0005109461B570BDC01ED91FC910280F3810A
:100BF000E02D099480E090E00895DC01ED91FC91F6
:100C0000DB0114964D915C9115976D917C9102805A
:100C1000F381E02D09940C94E705FC01808191811A
:100C20000C94C907CF93DF93EC01888199810097D9
:100C300011F00E94C907198218821D821C821B8232
:100C40001A82DF91CF9108950F931F93CF93DF9373
:100C5000EC018B016F5F7F4F888199810E9458085A
:100C6000009731F0998388831B830A8381E001C058
:100C700080E0DF91CF911F910F910895CF93DF9383
:100C8000EC0188819981892B29F08A819B818617C3
:100C9000970760F4CE010E942406882341F08C81DE
:100CA0009D81892B19F4E881F981108281E0DF911F
:100CB000CF910895EF92FF920F931F93CF93DF93FD
:100CC000EC017B018A01BA010E943E06811104C039
:100CD000CE010E94120607C01D830C83B7018881D4
:100CE00099810E942B09CE01DF91CF911F910F9125
:100CF000FF90EF900895FC011182108213821282FE
:100D0000158214826115710559F0FB0101900020D4
:100D1000E9F7AF0141505109461B570B0C945A0695
:100D20000895CF93DF93EC01FB018617970761F0DD
:100D3000608171816115710529F0448155810E949E
:100D40005A0602C00E941206CE01DF91CF9108958B
:100D5000CF93DF93EC016115710561F0FB01019008
:100D60000020E9F7AF0141505109461B570B0E9483
:100D70005A0602C00E941206CE01DF91CF9108955B
:100D80000F931F93CF93DF93CDB7DEB762970FB664
:100D9000F894DEBF0FBECDBF8C01CB01F8011182EC
:100DA0001082138212821582148250E0BE016F5F9E
:100DB0007F4F0E943209BE016F5F7F4FC8010E94C2
:100DC000A80662960FB6F894DEBF0FBECDBFDF91C6
:100DD000CF911F910F910895EF92FF920F931F9360
:100DE000CF93DF93EC017B010C811D8161157105AF
:100DF00011F480E016C04115510591F0040F151F44
:100E0000B8010E943E068823A1F3288139818C8194
:100E10009D81B701820F931F0E942B091D830C83B4
:100E200081E0DF91CF911F910F91FF90EF90089596
:100E3000CF93DF93EC01FB01448155816081718187
:100E40000E94EC06811103C0CE010E941206CE0161
:100E5000DF91CF910895EE0FFF1F0590F491E02DE3
:100E60000994CF93DF938230910510F482E090E0F3
:100E7000E0915E01F0915F0120E030E0A0E0B0E0A1
:100E8000309739F14081518148175907B8F0481718
:100E9000590771F482819381109729F013969C93DE
:100EA0008E9312972CC090935F0180935E0127C0B0
:100EB0002115310531F04217530718F0A901DB0164
:100EC00001C0EF019A01BD01DF010280F381E02D35
:100ED000D7CF21153105F9F0281B390B2430310506
:100EE00080F48A819B816115710521F0FB01938358
:100EF000828304C090935F0180935E01FE0132966D
:100F000044C0FE01E20FF31F8193919322503109F7
:100F1000398328833AC020915C0130915D01232BF5
:100F200041F4209102013091030130935D0120933F
:100F30005C0120910001309101012115310541F43E
:100F40002DB73EB74091040150910501241B350B8C
:100F5000E0915C01F0915D01E217F307A0F42E1B14
:100F60003F0B2817390778F0AC014E5F5F4F24170D
:100F7000350748F04E0F5F1F50935D0140935C01B1
:100F80008193919302C0E0E0F0E0CF01DF91CF9137
:100F90000895CF93DF93009709F487C0FC0132973F
:100FA00013821282C0915E01D0915F01209781F47B
:100FB00020813181280F391F80915C0190915D0162
:100FC0008217930779F5F0935D01E0935C016DC0A2
:100FD000DE0120E030E0AE17BF0750F412964D91CD
:100FE0005C9113979D014115510509F1DA01F3CF89
:100FF000B383A28340815181840F951F8A179B0779
:1010000071F48D919C911197840F951F0296918395
:10101000808312968D919C911397938382832115DF
:10102000310529F4F0935F01E0935E013EC0D901E0
:101030001396FC93EE9312974D915D91A40FB51FFB
:10104000EA17FB0779F480819181840F951F02963E
:10105000D90111969C938E938281938113969C93D0
:101060008E931297E0E0F0E08A819B81009719F05F
:10107000FE01EC01F9CFCE01029628813981820F61
:10108000931F20915C0130915D012817390769F4A5
:10109000309729F410925F0110925E0102C0138212
:1010A0001282D0935D01C0935C01DF91CF910895CE
:1010B000A0E0B0E0EEE5F8E00C947609EC01CB019D
:1010C000209719F40E943107B8C0FE01E60FF71F00
:1010D0009E0122503109E217F30708F4ACC0D90190
:1010E0000D911C91119706171707B8F005301105DF
:1010F00008F49FC0A801445051094617570708F447
:1011000098C002501109061B170B019311936D93A0
:101110007C93CF010E94C9078CC05B01A01AB10A61
:101120004E01800E911EA0915E01B0915F01612C75
:10113000712C60E070E0109709F449C0A815B9055A
:10114000C9F5ED90FC901197670142E0C40ED11CE7
:10115000CA14DB0478F147018A189B08640142E055
:10116000C40ED11C1296BC9012971396AC91B5E0A8
:10117000CB16D10440F0B282A38391828082D90140
:101180008D939C9309C00E5F1F4F0E0D1F1DF9011B
:1011900011830083EB2DFA2F6115710531F0DB010E
:1011A0001396FC93EE93129744C0F0935F01E09383
:1011B0005E013FC06D917C9111976616770608F429
:1011C0003B01BD0112960D90BC91A02DB4CF609152
:1011D0005C0170915D0168157905E9F4681679067E
:1011E000D0F440910001509101014115510541F4A5
:1011F0004DB75EB76091040170910501461B570B16
:10120000E417F507C0F4F0935D01E0935C01F90188
:10121000918380830EC00E9431077C01009759F0B2
:10122000A801BE010E942209CE010E94C907C70180
:1012300004C0CE0102C080E090E0CDB7DEB7EEE0A2
:101240000C949209FB01DC0102C001900D92415007
:101250005040D8F70895FB01DC0101900D92002069
:10126000E1F708954532510520F4423010F00C9416
:101270003D09FB011082CB010895BB274A3031F4B0
:10128000992322F4BDE2909581959F4F0C944909D2
:10129000BB27FB015527AA27880F991FAA1FA41750
:1012A00010F0A41B83955051B9F7A05DAA3308F044
:1012B000A95DA193009779F7B111B1931192CB0178
:1012C0000C946209DC01FC01672F71917723E1F72F
:1012D000329704C07C916D9370836291AE17BF0703
:1012E000C8F308952F923F924F925F926F927F9230
:1012F0008F929F92AF92BF92CF92DF92EF92FF9226
:101300000F931F93CF93DF93CDB7DEB7CA1BDB0BD1
:101310000FB6F894DEBF0FBECDBF09942A88398876
:1013200048885F846E847D848C849B84AA84B9847D
:10133000C884DF80EE80FD800C811B81AA81B98189
:10134000CE0FD11D0FB6F894DEBF0FBECDBFED019D
:061350000895F894FFCFA0
:101356000000600180000100E303E30330004C69F4
:1013660074726F73203D004D656469646F203D00A3
:0A1376004D0000000000DD03BF057C
:00000001FF
